:100000000C9434000C9451000C9451000C94510049
:100010000C9451000C9451000C9451000C9451001C
:100020000C9451000C94A6060C9451000C945100B1
:100030000C9451000C9451000C9451000C945100FC
:100040000C9451000C9451000C9451000C945100EC
:100050000C9451000C9451000C9451000C945100DC
:100060000C9451000C94510011241FBECFEFD8E026
:10007000DEBFCDBF13E0A0E0B1E0E2E9F8E102C0ED
:1000800005900D92A033B107D9F713E0A0E3B3E0D8
:1000900001C01D92AF34B107E1F70E940F0A0C9422
:1000A000470C0C940000EF92FF920F931F937B017B
:1000B0008C0120E030E040E05FE40E94530388239D
:1000C0008CF0C801B70120E030E040E05FE40E941E
:1000D000CB010E94B3039B01AC0120503040404053
:1000E000504806C0C801B7010E94B3039B01AC0190
:1000F000B901CA011F910F91FF90EF900895A0E000
:10010000B0E0E5E8F0E00C94CB0BDC012B01FA0148
:100110009C91923008F439C1EB018881823008F457
:1001200033C1943069F4843009F02FC111969C9149
:1001300011978981981709F428C1A5E2B3E025C178
:10014000843009F421C18230A9F4923009F01DC134
:100150009A01AD0188E0EA010990AE01E901099236
:100160009E018150C1F7E201898111969C918923FA
:10017000818308C1923009F407C112962D903C90FA
:100180001397EB018A819B811496AD90BD90CD9021
:10019000DC901797EC80FD800E811F819101281B58
:1001A000390BB90137FF04C066277727621B730B31
:1001B000603271050CF061C0121613066CF5370140
:1001C0004801062E04C096948794779467940A9405
:1001D000D2F721E030E040E050E004C0220F331FAE
:1001E000441F551F6A95D2F721503040404050407F
:1001F0002E213F2140235123211531054105510571
:1002000021F021E030E040E050E079018A01E62869
:10021000F728082919293CC0232BD1F1260E371EB7
:1002200035014601062E04C096948794779467940E
:100230000A94D2F721E030E040E050E004C0220F01
:10024000331F441F551F6A95D2F72150304040405C
:1002500050402A213B214C215D21211531054105CA
:10026000510521F021E030E040E050E059016A0101
:10027000A628B728C828D9280BC0821593052CF0CA
:100280001C01AA24BB24650103C0EE24FF248701BE
:1002900011969C91D20111968C91981709F445C042
:1002A000992339F0A80197012A193B094C095D09E6
:1002B00006C0A60195012E193F09400B510B57FDB1
:1002C00008C0118233822282248335834683578378
:1002D0001DC081E081833382228288279927DC0137
:1002E000821B930BA40BB50B84839583A683B783E2
:1002F0000DC0220F331F441F551F248335834683AF
:1003000057838281938101979383828324813581EE
:1003100046815781DA01C9010197A109B1098F5FAF
:100320009F4FAF4FBF4328F30BC09183338222828C
:10033000EA0CFB1C0C1D1D1DE482F582068317834D
:1003400083E08083248135814681578157FF1AC01D
:10035000C901AA2797FDA095BA2F81709070A0704F
:10036000B0705695479537952795822B932BA42BE4
:10037000B52B84839583A683B7838281938101966D
:1003800093838283DF0101C0D201CD01CDB7DEB7F7
:10039000E2E10C94E70BA0E2B0E0E1EDF1E00C94B7
:1003A000D70B69837A838B839C832D833E834F8312
:1003B0005887E9E0EE2EF12CEC0EFD1ECE010196E1
:1003C000B7010E94DC048E010F5E1F4FCE0105961F
:1003D000B8010E94DC048A8991E089278A8BC701D1
:1003E000B801AE01475E5F4F0E947F000E94070484
:1003F000A096E6E00C94F30BA0E2B0E0E2E0F2E0BD
:100400000C94D70B69837A838B839C832D833E83E3
:100410004F835887F9E0EF2EF12CEC0EFD1ECE0134
:100420000196B7010E94DC048E010F5E1F4FCE01C2
:100430000596B8010E94DC04C701B801AE01475E11
:100440005F4F0E947F000E940704A096E6E00C9494
:10045000F30BA0E2B0E0EFE2F2E00C94CB0B698387
:100460007A838B839C832D833E834F835887CE0171
:100470000196BE01675F7F4F0E94DC04CE010596A6
:10048000BE016F5E7F4F0E94DC049985923088F038
:1004900089898230C8F0943019F4823051F404C054
:1004A000843029F4923081F485E293E0C6C0923022
:1004B00049F420E09A858A89981321E02A87CE01A1
:1004C0000996BBC0823049F420E09A858A89981346
:1004D00021E02A8BCE014196B0C02D843E844F840A
:1004E00058886D887E888F88988CEE24FF24870139
:1004F000AA24BB24650140E050E060E070E0E0E049
:10050000F0E0C10181709070892BE9F0E60CF71CD6
:10051000081D191D9A01AB012A0D3B1D4C1D5D1DC7
:1005200080E090E0A0E0B0E0E614F70408051905CB
:1005300020F481E090E0A0E0B0E0BA01A901480F0A
:10054000591F6A1F7B1FAA0CBB1CCC1CDD1C97FE0D
:1005500008C081E090E0A0E0B0E0A82AB92ACA2A49
:10056000DB2A3196E032F10549F0660C771C881CD5
:10057000991C5694479437942794C3CFFA85EA89F7
:100580002B893C898B859C85280F391F2E5F3F4F17
:1005900017C0CA0181709070892B61F0169507957C
:1005A000F794E79480E090E0A0E0B0E8E82AF92A28
:1005B0000A2B1B2B76956795579547952F5F3F4FD5
:1005C00077FDE7CF0CC0440F551F661F771F17FD3F
:1005D0004160EE0CFF1C001F111F215030404030C5
:1005E00090E0590790E0690790E4790760F32B8F5A
:1005F0003C8FDB01CA018F779070A070B07080349F
:100600009105A105B10561F447FD0AC0E114F104AB
:100610000105110529F0405C5F4F6F4F7F4F407817
:100620001A8EFE1711F081E08A8F4D8F5E8F6F8FCB
:1006300078A383E0898FCE0149960E940704A09693
:10064000E2E10C94E70BA8E1B0E0E9E2F3E00C94FE
:10065000D70B69837A838B839C832D833E834F835F
:10066000588789E0E82EF12CEC0EFD1ECE01019694
:10067000B7010E94DC048E010F5E1F4FCE0105966C
:10068000B8010E94DC048985823040F0898982307B
:1006900028F0C701B8010E94540501C08FEF689689
:1006A000E6E00C94F30BA8E1B0E0E9E5F3E00C948C
:1006B000D70B69837A838B839C832D833E834F83FF
:1006C000588789E0E82EF12CEC0EFD1ECE01019634
:1006D000B7010E94DC048E010F5E1F4FCE0105960C
:1006E000B8010E94DC048985823040F0898982301B
:1006F00028F0C701B8010E94540501C08FEF689629
:10070000E6E00C94F30BA8E1B0E0E9E8F3E00C9428
:10071000D70B69837A838B839C832D833E834F839E
:10072000588789E0E82EF12CEC0EFD1ECE010196D3
:10073000B7010E94DC048E010F5E1F4FCE010596AB
:10074000B8010E94DC048985823040F089898230BA
:1007500028F0C701B8010E94540501C081E06896E5
:10076000E6E00C94F30BACE0B0E0E9EBF3E00C94C2
:10077000DB0B69837A838B839C83CE010196BE0158
:100780006B5F7F4F0E94DC048D81823061F182308B
:1007900050F1843021F48E81882351F12EC02F81B5
:1007A000388537FD20C06E812F3131051CF066235E
:1007B000F9F023C08EE190E0821B930B29853A85E6
:1007C0004B855C8504C056954795379527958A9546
:1007D000D2F76623B1F050954095309521953F4F63
:1007E0004F4F5F4F0EC020E030E040E050E009C0C6
:1007F0002FEF3FEF4FEF5FE704C020E030E040E035
:1008000050E8B901CA012C96E2E00C94F70BDF9294
:10081000EF92FF920F931F93FC01E480F580068115
:100820001781D1808081823048F480E090E0A0E19F
:10083000B0E0E82AF92A0A2B1B2BA5C0843009F462
:100840009FC0823021F4EE24FF24870105C0E1140B
:10085000F1040105110519F4E0E0F0E096C06281B1
:1008600073819FEF623879070CF05BC022E83FEF9D
:10087000261B370B2A3131052CF020E030E040E018
:1008800050E02AC0B801A701022E04C076956795F2
:10089000579547950A94D2F781E090E0A0E0B0E048
:1008A00004C0880F991FAA1FBB1F2A95D2F7019772
:1008B000A109B1098E219F21A023B1230097A10591
:1008C000B10521F081E090E0A0E0B0E09A01AB0139
:1008D000282B392B4A2B5B2BDA01C9018F779070BB
:1008E000A070B07080349105A105B10539F427FFDF
:1008F00009C0205C3F4F4F4F5F4F04C0215C3F4F0A
:100900004F4F5F4FE0E0F0E02030A0E03A07A0E07A
:100910004A07A0E45A0710F0E1E0F0E079018A010B
:1009200027C06038710564F5FB01E158FF4FD8011D
:10093000C7018F779070A070B07080349105A105C9
:10094000B10539F4E7FE0DC080E490E0A0E0B0E02E
:1009500004C08FE390E0A0E0B0E0E80EF91E0A1FAB
:100960001B1F17FF05C016950795F794E79431965E
:1009700087E016950795F794E7948A95D1F705C017
:10098000EE24FF248701EFEFF0E06E2F67956627D6
:100990006795902F9F77D794DD24D7948E2F8695D7
:1009A000492F462B582F5D29B701CA011F910F917E
:1009B000FF90EF90DF900895FC01DB0140815181B1
:1009C0002281622F6F7770E0221F2227221F9381DE
:1009D000892F880F822B282F30E0991F9927991F84
:1009E00011969C93119721153105A9F541155105D3
:1009F0006105710511F482E037C082E89FEF13961C
:100A00009C938E9312979A01AB0167E0220F331FDC
:100A1000441F551F6A95D1F783E08C930DC0220FB8
:100A2000331F441F551F12968D919C911397019768
:100A300013969C938E931297203080E0380780E0C5
:100A4000480780E4580758F314962D933D934D932F
:100A50005C93179708952F3F310579F4411551059F
:100A60006105710519F484E08C93089564FF03C057
:100A700081E08C9312C01C9210C02F573040139607
:100A80003C932E93129783E08C9387E0440F551F7D
:100A9000661F771F8A95D1F7706414964D935D9306
:100AA0006D937C93179708951F93DC01FB019C9134
:100AB000923008F447C08081823008F443C09430FB
:100AC00051F411961C91843099F58181682F70E062
:100AD000611B71093FC0843021F0923031F48230C3
:100AE000B9F18181882389F12DC011961C9111974C
:100AF0008230F1F081811817D9F412962D913C9132
:100B00001397828193818217930794F028173907EE
:100B1000BCF014968D919D910D90BC91A02D2481D7
:100B2000358146815781281739074A075B0718F432
:100B3000112341F00AC082179307A407B50740F4B8
:100B4000112319F061E070E005C06FEF7FEF02C084
:100B500060E070E0CB011F910895DF93CF93CDB794
:100B6000DEB7ECE7F0E080E48083EAE7F0E083E0E2
:100B70008083AAE7B0E0EAE7F0E0808180688C93A8
:100B8000AAE7B0E0EAE7F0E0808180648C93EAE7CE
:100B9000F0E08081882F90E0807490700097B9F722
:100BA000CF91DF910895DF93CF930F92CDB7DEB74A
:100BB0008983ACE7B0E0ECE7F0E08081982F907E8D
:100BC00089818F71892B8C93AAE7B0E0EAE7F0E086
:100BD000808180648C93EAE7F0E08081882F90E048
:100BE000807490700097B9F7E8E7F0E08081918118
:100BF0000F90CF91DF910895DF93CF93CDB7DEB7FC
:100C000027970FB6F894DEBF0FBECDBF8E836F83DC
:100C10001A821B821C821D82198215C08E810E943D
:100C2000D3059C0140E050E08A819B81AC81BD816D
:100C3000820F931FA41FB51F8A839B83AC83BD8340
:100C400089818F5F898399818F81981738F38F818C
:100C5000282F30E040E050E08A819B81AC81BD814B
:100C6000BC01CD010E94A90BDA01C90127960FB67C
:100C7000F894DEBF0FBECDBFCF91DF910895DF9313
:100C8000CF93CDB7DEB7E5ECF0E01082E4ECF0E016
:100C900081E28083A1ECB0E0E1ECF0E0808188604B
:100CA0008C93E2ECF0E086E08083CF91DF910895B1
:100CB000DF93CF93CDB7DEB7E1ECF0E0A1ECB0E08D
:100CC0008C918083CF91DF910895DF93CF930F9222
:100CD000CDB7DEB78983E0ECF0E08081882F90E02B
:100CE000807290700097B9F3E6ECF0E08981808320
:100CF00080E090E00F90CF91DF910895DF93CF9344
:100D000000D0CDB7DEB79A8389830AC0E981FA8122
:100D100080810E94650689819A8101969A838983E0
:100D2000E981FA818081882389F70F900F90CF9114
:100D3000DF910895DF93CF9300D0CDB7DEB79A83CC
:100D400089830F900F90CF91DF9108951F920F929A
:100D50000FB60F9211248F939F93AF93BF93EF938E
:100D6000FF93DF93CF93CDB7DEB7809143038F5FBF
:100D70008093430380914303823050F010924303E9
:100D8000ABE2B0E0EBE2F0E0908180E189278C9368
:100D9000CF91DF91FF91EF91BF91AF919F918F9193
:100DA0000F900FBE0F901F901895DF93CF93CDB784
:100DB000DEB780E091E00E947E0685E191E00E942E
:100DC0007E06E3E2F0E08081882F90E084709070EE
:100DD000009761F08DE191E00E947E06ABE2B0E009
:100DE000EBE2F0E0808180688C930BC08BE291E0B5
:100DF0000E947E06ABE2B0E0EBE2F0E080818F770C
:100E00008C938BE391E00E947E068EE391E00E943A
:100E10007E06E3E2F0E08081882F90E08870907099
:100E2000009761F086E491E00E947E06ABE2B0E0BC
:100E3000EBE2F0E0808184608C930BC081E591E06F
:100E40000E947E06ABE2B0E0EBE2F0E080818B7FB7
:100E50008C938BE391E00E947E068EE591E00E94E8
:100E60007E06E6E2F0E08081882F90E0807290704C
:100E7000009761F086E691E00E947E06ABE2B0E06A
:100E8000EBE2F0E0808188608C930BC087E791E013
:100E90000E947E06ABE2B0E0EBE2F0E08081877F6B
:100EA0008C938BE391E00E947E0687E891E00E949C
:100EB0007E06E6E2F0E08081882F90E080719070FD
:100EC000009729F08FE891E00E947E0604C082E935
:100ED00091E00E947E068BE391E00E947E0686E907
:100EE00091E00E947E06E6E2F0E08081882F90E0AB
:100EF00088709070009729F08FE891E00E947E063C
:100F000004C082E991E00E947E068BE391E00E949A
:100F10007E068EE991E00E947E06E6E2F0E08081A6
:100F2000882F90E084709070009729F08FE891E00E
:100F30000E947E0604C082E991E00E947E068BE357
:100F400091E00E947E06CF91DF910895DF93CF93C9
:100F5000CDB7DEB787E060E20E94FC0590933503D1
:100F6000809334032091340330913503C901880FF5
:100F7000991F880F991F820F931F909333038093BB
:100F8000320386EA91E00E947E06809132039091BE
:100F900033032DE233E0B9014AE050E00E94020C35
:100FA0008DE293E00E947E0684EB91E00E947E0633
:100FB000CF91DF910895DF93CF93CDB7DEB78091C6
:100FC0004003909141032AE2893F920760F0ABE22F
:100FD000B0E0EBE2F0E080818F7D8C9381EC91E0DA
:100FE0000E947E0636C0809140039091410323E227
:100FF0008832920760F4ABE2B0E0EBE2F0E080818F
:1010000080628C9381ED91E00E947E0622C082EE88
:1010100091E00E947E06809142038F5F809342039D
:1010200080914203823010F010924203809142037B
:10103000882341F4ABE2B0E0EBE2F0E08081806233
:101040008C9307C0ABE2B0E0EBE2F0E080818F7DF3
:101050008C93809143038F5F80934303809143037C
:10106000823050F010924303ABE2B0E0EBE2F0E0EC
:10107000908180E189278C93809140039091410376
:1010800028E28C33920780F48091400390914103D1
:1010900025E2853E920740F0ABE2B0E0EBE2F0E003
:1010A000808180648C9307C0ABE2B0E0EBE2F0E0BB
:1010B00080818F7B8C93CF91DF910895DF93CF93C5
:1010C000CDB7DEB72E970FB6F894DEBF0FBECDBFFB
:1010D00080E090E0A8E4B3E48B879C87AD87BE876F
:1010E0006B857C858D859E8520E030E048EC53E45F
:1010F0000E942902DC01CB018F839887A987BA87D8
:101100006F81788589859A8520E030E040E85FE34B
:101110000E94830388232CF481E090E09E838D83DA
:101120003FC06F81788589859A8520E03FEF4FE742
:1011300057E40E94230318164CF56B857C858D853A
:101140009E8520E030E040E251E40E942902DC016B
:10115000CB01BC01CD010E945300DC01CB019E8379
:101160008D830FC088E290E09C838B838B819C8170
:101170000197F1F79C838B838D819E8101979E83DC
:101180008D838D819E81009769F714C06F8178856A
:1011900089859A850E945300DC01CB019E838D8353
:1011A0008D819E819A83898389819A810197F1F744
:1011B0009A8389830E943F060E9458062E960FB696
:1011C000F894DEBF0FBECDBFCF91DF910895DF93BE
:1011D000CF93CDB7DEB786E060E20E94FC05909326
:1011E000490380934803209148033091490383E3E6
:1011F00090E0AC01249FC001259F900D349F900D7D
:10120000112490933D0380933C0384EF91E00E946E
:101210007E0680913C0390913D032DE233E0B901BD
:101220004AE050E00E94020C8DE293E00E947E06AC
:1012300084E092E00E947E0680E060E20E94FC056D
:1012400090933F0380933E0320913E0330913F03F0
:10125000C901880F991F820F931F9C01220F331F12
:10126000220F331F220F331F820F931F90934103CE
:10127000809340038AE092E00E947E0680914003C2
:10128000909141032DE233E0B9014AE050E00E9421
:10129000020C8DE293E00E947E0684E092E00E94C0
:1012A0007E06CF91DF910895DF93CF93CDB7DEB760
:1012B00080E89EE390933103809330038091400354
:1012C0009091410325E3883E920768F08CE192E01B
:1012D0000E947E06E8E8F0E0118210821092370347
:1012E000109236036CC0809140039091410325E336
:1012F0008438920770F085E392E00E947E06809128
:1013000036039091370340979093370380933603C9
:1013100056C020913C0330913D0380913003909161
:10132000310328173907B0F48091400390914103AD
:1013300025E3863B920770F48AE592E00E947E06E0
:1013400080913603909137030196909337038093F1
:10135000360335C020913C0330913D03809130032A
:101360009091310382179307B0F4809140039091DC
:10137000410325E3863B920770F48FE792E00E94D9
:101380007E0680913603909137030197909337033F
:101390008093360314C02091400330914103809123
:1013A0003C0390913D038217930728F484EA92E06E
:1013B0000E947E0604C086EC92E00E947E06809128
:1013C00036039091370323E08135920730F080E5B2
:1013D00093E09093370380933603E8E8F0E0809140
:1013E0003603909137039183808381EE92E00E94CF
:1013F0007E0680913603909137032DE233E0B901E8
:1014000040E150E00E94020C8DE293E00E947E06D3
:101410008BE391E00E947E06CF91DF910895DF93E8
:10142000CF93CDB7DEB76C970FB6F894DEBF0FBE83
:10143000CDBF81EF92E00E947E06AAE2B0E0EAE230
:10144000F0E0808184608C93AAE2B0E0EAE2F0E010
:10145000808188608C93AAE2B0E0EAE2F0E08081CB
:1014600080618C93AAE2B0E0EAE2F0E080818062E1
:101470008C93AAE2B0E0EAE2F0E0808180648C9391
:10148000AAE2B0E0EAE2F0E0808180688C93A4E216
:10149000B0E0E4E2F0E0808181608C93A4E2B0E00F
:1014A000E4E2F0E0808182608C93A4E2B0E0E4E2C8
:1014B000F0E080818B7F8C93A4E2B0E0E4E2F0E086
:1014C0008081877F8C93A7E2B0E0E7E2F0E0808143
:1014D0008B7F8C93A7E2B0E0E7E2F0E08081877F2A
:1014E0008C93A7E2B0E0E7E2F0E080818F7E8C93FE
:1014F000A7E2B0E0E7E2F0E080818F7D8C930E946C
:10150000AD05A0E8B0E0E0E8F0E080818B688C9366
:10151000A1E8B0E0E1E8F0E0808181608C93E6E84A
:10152000F0E08FEF93E091838083E8E8F0E080EFD4
:1015300090E091838083E3EBF0E08EE38083A0EB87
:10154000B0E0E0EBF0E0808182608C93A0E7B0E057
:10155000E0E7F0E0808182608C93A1EBB0E0E1EB0A
:10156000F0E0808182608C9380E090E0A8E4B3E4B6
:10157000898F9A8FAB8FBC8F698D7A8D8B8D9C8D67
:1015800020E030E048EC53E40E942902DC01CB016A
:101590008D8B9E8BAF8BB88F6D897E898F89988D4F
:1015A00020E030E040E85FE30E94830388232CF4CE
:1015B00081E090E09C8B8B8B3FC06D897E898F8909
:1015C000988D20E03FEF4FE757E40E942303181661
:1015D0004CF5698D7A8D8B8D9C8D20E030E040E25A
:1015E00051E40E942902DC01CB01BC01CD010E9423
:1015F0005300DC01CB019C8B8B8B0FC088E290E009
:101600009A8B898B89899A890197F1F79A8B898BB3
:101610008B899C8901979C8B8B8B8B899C890097EC
:1016200069F714C06D897E898F89988D0E94530057
:10163000DC01CB019C8B8B8B8B899C89988B8F8752
:101640008F8598890197F1F7988B8F8788E093E0D1
:101650000E947E060E94D5060E94DB070E94A60714
:101660000E94E7080E9454090E945E0880E090E40E
:10167000ACE9B5E48B879C87AD87BE876B857C859D
:101680008D859E8520E030E048EC53E40E942902DD
:10169000DC01CB018F839887A987BA876F81788512
:1016A00089859A8520E030E040E85FE30E9483036B
:1016B00088232CF481E090E09E838D833FC06F816E
:1016C000788589859A8520E03FEF4FE757E40E94AF
:1016D000230318164CF56B857C858D859E8520E04F
:1016E00030E040E251E40E942902DC01CB01BC0160
:1016F000CD010E945300DC01CB019E838D830FC07E
:1017000088E290E09C838B838B819C810197F1F729
:101710009C838B838D819E8101979E838D838D8198
:101720009E81009769F792CF6F81788589859A8528
:101730000E945300DC01CB019E838D838D819E81AD
:101740009A83898389819A810197F1F79A838983A2
:101750007DCFA1E21A2EAA1BBB1BFD010DC0AA1F43
:10176000BB1FEE1FFF1FA217B307E407F50720F00A
:10177000A21BB30BE40BF50B661F771F881F991F85
:101780001A9469F760957095809590959B01AC01CE
:10179000BD01CF0108952F923F924F925F926F92B9
:1017A0007F928F929F92AF92BF92CF92DF92EF92F1
:1017B000FF920F931F93CF93DF93CDB7DEB7CA1B72
:1017C000DB0B0FB6F894DEBF0FBECDBF09942A889D
:1017D000398848885F846E847D848C849B84AA8445
:1017E000B984C884DF80EE80FD800C811B81AA81D2
:1017F000B981CE0FD11D0FB6F894DEBF0FBECDBF9D
:10180000ED010895FB019F01E8944230C4F0453298
:10181000B4F44A3029F497FB1EF4909581959F4FBC
:10182000642F77270E94330C805D8A330CF0895D2A
:101830008193CB010097A1F716F45DE251931082DA
:10184000C9010C94230CDC01FC01672F71917723F3
:10185000E1F7329704C07C916D9370836291AE176B
:10186000BF07C8F30895AA1BBB1B51E107C0AA1FFD
:10187000BB1FA617B70710F0A61BB70B881F991F31
:101880005A95A9F780959095BC01CD010895F894DB
:02189000FFCF88
:1018920044495020535749544348205354415455C6
:1018A200533A0D0A0044495020313A20004F4E3A33
:1018B20020526F75746572204F6E004F46463A2073
:1018C200526F75746572204F6666000D0A004449B6
:1018D2005020323A20004F4E3A20555342204F6E4C
:1018E200004F46463A20555342204F66660044490F
:1018F2005020333A20004F4E3A2052656C617920D5
:10190200436C6F736564004F46463A2052656C61C2
:1019120079204F70656E0044495020343A20004FC0
:101922004E004F46460044495020353A2000444973
:101932005020363A200054454D504552415455529C
:10194200453A20002064656720432F3130300D0A6C
:1019520000424154544552593A2046554C4C0D0AC6
:1019620000424154544552593A20454D5054590D64
:101972000A00424154544552593A204D4544495572
:101982004D0D0A00536F6C617220566F6C74616763
:10199200653A2000206D560D0A004261747465722A
:1019A2007920566F6C746167653A200050574D205C
:1019B2004D4F44453A2042617474657279206675D0
:1019C2006C6C0D0A0050574D204D4F44453A204251
:1019D20061747465727920617070726F6163686995
:1019E2006E672066756C6C0D0A0050574D204D4F86
:1019F20044453A20547261636B696E672C20696EAC
:101A02006372656173696E672070776D0D0A0050AD
:101A1200574D204D4F44453A20547261636B696EB5
:101A2200672C2064656372656173696E67207077E5
:101A32006D0D0A0050574D204D4F44453A20536FCB
:101A42006C617220766F6C7461676520746F6F20B1
:101A52006C6F770D0A0050574D204D4F44453A2088
:101A62004E6F7468696E6720646F6E652E2E0D0A64
:101A7200000D0A50574D2076616C75653A2030781A
:101A8200005374617274696E67204D505054204344
:101A92006F6465202E2E2E004D50505420434F442B
:101AA200452056302E390D0A2D2D2D2D2D2D2D2D63
:101AB2002D2D0D0A000000000000000000000100B2
:00000001FF
